{
    "contractName": "EthFundMe",
    "abi": [
        {
            "inputs": [],
            "name": "EthFundMe__GoalAlreadyReached",
            "type": "error"
        },
        {
            "inputs": [],
            "name": "EthFundMe__Unauthorized",
            "type": "error"
        },
        {
            "anonymous": false,
            "inputs": [
                {
                    "components": [
                        {
                            "internalType": "address",
                            "name": "creator",
                            "type": "address"
                        },
                        {
                            "internalType": "string",
                            "name": "title",
                            "type": "string"
                        },
                        {
                            "internalType": "string",
                            "name": "description",
                            "type": "string"
                        },
                        {
                            "internalType": "uint256",
                            "name": "goal",
                            "type": "uint256"
                        },
                        {
                            "internalType": "string[]",
                            "name": "images",
                            "type": "string[]"
                        },
                        {
                            "internalType": "bool",
                            "name": "isVerified",
                            "type": "bool"
                        },
                        {
                            "internalType": "uint256",
                            "name": "dateCreated",
                            "type": "uint256"
                        },
                        {
                            "internalType": "address",
                            "name": "beneficiary",
                            "type": "address"
                        },
                        {
                            "internalType": "uint256",
                            "name": "totalAccrued",
                            "type": "uint256"
                        }
                    ],
                    "indexed": false,
                    "internalType": "struct EthFundMe.Campaign",
                    "name": "",
                    "type": "tuple"
                }
            ],
            "name": "CampaignCreated",
            "type": "event"
        },
        {
            "anonymous": false,
            "inputs": [
                {
                    "indexed": true,
                    "internalType": "address",
                    "name": "funder",
                    "type": "address"
                },
                {
                    "components": [
                        {
                            "internalType": "address",
                            "name": "creator",
                            "type": "address"
                        },
                        {
                            "internalType": "string",
                            "name": "title",
                            "type": "string"
                        },
                        {
                            "internalType": "string",
                            "name": "description",
                            "type": "string"
                        },
                        {
                            "internalType": "uint256",
                            "name": "goal",
                            "type": "uint256"
                        },
                        {
                            "internalType": "string[]",
                            "name": "images",
                            "type": "string[]"
                        },
                        {
                            "internalType": "bool",
                            "name": "isVerified",
                            "type": "bool"
                        },
                        {
                            "internalType": "uint256",
                            "name": "dateCreated",
                            "type": "uint256"
                        },
                        {
                            "internalType": "address",
                            "name": "beneficiary",
                            "type": "address"
                        },
                        {
                            "internalType": "uint256",
                            "name": "totalAccrued",
                            "type": "uint256"
                        }
                    ],
                    "indexed": false,
                    "internalType": "struct EthFundMe.Campaign",
                    "name": "",
                    "type": "tuple"
                }
            ],
            "name": "CampaignFunded",
            "type": "event"
        },
        {
            "anonymous": false,
            "inputs": [
                {
                    "indexed": false,
                    "internalType": "uint256",
                    "name": "amount",
                    "type": "uint256"
                },
                {
                    "indexed": false,
                    "internalType": "uint256",
                    "name": "percentage",
                    "type": "uint256"
                },
                {
                    "components": [
                        {
                            "internalType": "address",
                            "name": "creator",
                            "type": "address"
                        },
                        {
                            "internalType": "string",
                            "name": "title",
                            "type": "string"
                        },
                        {
                            "internalType": "string",
                            "name": "description",
                            "type": "string"
                        },
                        {
                            "internalType": "uint256",
                            "name": "goal",
                            "type": "uint256"
                        },
                        {
                            "internalType": "string[]",
                            "name": "images",
                            "type": "string[]"
                        },
                        {
                            "internalType": "bool",
                            "name": "isVerified",
                            "type": "bool"
                        },
                        {
                            "internalType": "uint256",
                            "name": "dateCreated",
                            "type": "uint256"
                        },
                        {
                            "internalType": "address",
                            "name": "beneficiary",
                            "type": "address"
                        },
                        {
                            "internalType": "uint256",
                            "name": "totalAccrued",
                            "type": "uint256"
                        }
                    ],
                    "indexed": false,
                    "internalType": "struct EthFundMe.Campaign",
                    "name": "",
                    "type": "tuple"
                }
            ],
            "name": "CreatorFunded",
            "type": "event"
        },
        {
            "stateMutability": "payable",
            "type": "fallback"
        },
        {
            "inputs": [],
            "name": "FEE",
            "outputs": [
                {
                    "internalType": "uint256",
                    "name": "",
                    "type": "uint256"
                }
            ],
            "stateMutability": "view",
            "type": "function"
        },
        {
            "inputs": [
                {
                    "internalType": "string",
                    "name": "_title",
                    "type": "string"
                },
                {
                    "internalType": "string",
                    "name": "_desc",
                    "type": "string"
                },
                {
                    "internalType": "uint256",
                    "name": "_goal",
                    "type": "uint256"
                },
                {
                    "internalType": "string[]",
                    "name": "_images",
                    "type": "string[]"
                },
                {
                    "internalType": "address",
                    "name": "_beneficiary",
                    "type": "address"
                }
            ],
            "name": "addCampaign",
            "outputs": [
                {
                    "internalType": "uint256",
                    "name": "campaignID",
                    "type": "uint256"
                }
            ],
            "stateMutability": "nonpayable",
            "type": "function"
        },
        {
            "inputs": [
                {
                    "internalType": "string",
                    "name": "_title",
                    "type": "string"
                },
                {
                    "internalType": "string",
                    "name": "_desc",
                    "type": "string"
                },
                {
                    "internalType": "uint256",
                    "name": "_goal",
                    "type": "uint256"
                },
                {
                    "internalType": "string[]",
                    "name": "_images",
                    "type": "string[]"
                }
            ],
            "name": "addCampaign",
            "outputs": [
                {
                    "internalType": "uint256",
                    "name": "campaignID",
                    "type": "uint256"
                }
            ],
            "stateMutability": "nonpayable",
            "type": "function"
        },
        {
            "inputs": [
                {
                    "internalType": "address",
                    "name": "_creator",
                    "type": "address"
                }
            ],
            "name": "creatorCollection",
            "outputs": [
                {
                    "internalType": "uint256[]",
                    "name": "",
                    "type": "uint256[]"
                }
            ],
            "stateMutability": "view",
            "type": "function"
        },
        {
            "inputs": [
                {
                    "internalType": "address",
                    "name": "",
                    "type": "address"
                }
            ],
            "name": "creator_Fee",
            "outputs": [
                {
                    "internalType": "uint256",
                    "name": "",
                    "type": "uint256"
                }
            ],
            "stateMutability": "view",
            "type": "function"
        },
        {
            "inputs": [
                {
                    "internalType": "address",
                    "name": "",
                    "type": "address"
                }
            ],
            "name": "creator_isVerified",
            "outputs": [
                {
                    "internalType": "bool",
                    "name": "",
                    "type": "bool"
                }
            ],
            "stateMutability": "view",
            "type": "function"
        },
        {
            "inputs": [
                {
                    "internalType": "uint256",
                    "name": "_cID",
                    "type": "uint256"
                }
            ],
            "name": "fundCampaign",
            "outputs": [],
            "stateMutability": "payable",
            "type": "function"
        },
        {
            "inputs": [
                {
                    "internalType": "uint256",
                    "name": "",
                    "type": "uint256"
                }
            ],
            "name": "s_Campaigns",
            "outputs": [
                {
                    "internalType": "address",
                    "name": "creator",
                    "type": "address"
                },
                {
                    "internalType": "string",
                    "name": "title",
                    "type": "string"
                },
                {
                    "internalType": "string",
                    "name": "description",
                    "type": "string"
                },
                {
                    "internalType": "uint256",
                    "name": "goal",
                    "type": "uint256"
                },
                {
                    "internalType": "bool",
                    "name": "isVerified",
                    "type": "bool"
                },
                {
                    "internalType": "uint256",
                    "name": "dateCreated",
                    "type": "uint256"
                },
                {
                    "internalType": "address",
                    "name": "beneficiary",
                    "type": "address"
                },
                {
                    "internalType": "uint256",
                    "name": "totalAccrued",
                    "type": "uint256"
                }
            ],
            "stateMutability": "view",
            "type": "function"
        },
        {
            "inputs": [
                {
                    "internalType": "uint256",
                    "name": "_fee",
                    "type": "uint256"
                }
            ],
            "name": "setFEE",
            "outputs": [],
            "stateMutability": "nonpayable",
            "type": "function"
        },
        {
            "inputs": [
                {
                    "internalType": "uint256",
                    "name": "_amount",
                    "type": "uint256"
                }
            ],
            "name": "setFeeCreator",
            "outputs": [],
            "stateMutability": "nonpayable",
            "type": "function"
        },
        {
            "inputs": [
                {
                    "internalType": "uint256",
                    "name": "_cID",
                    "type": "uint256"
                },
                {
                    "internalType": "bool",
                    "name": "_status",
                    "type": "bool"
                }
            ],
            "name": "verifyCampaign",
            "outputs": [],
            "stateMutability": "nonpayable",
            "type": "function"
        },
        {
            "inputs": [
                {
                    "internalType": "address",
                    "name": "_creator",
                    "type": "address"
                },
                {
                    "internalType": "bool",
                    "name": "_status",
                    "type": "bool"
                }
            ],
            "name": "verifyCreator",
            "outputs": [],
            "stateMutability": "nonpayable",
            "type": "function"
        },
        {
            "stateMutability": "payable",
            "type": "receive"
        }
    ],
    "bytecode": "6080604052680107ad8f556c6c0000600055600180546001600160a01b03191673b11a8eb867df90f09adbeb4f550e1f8f66f1c5f217905534801561004357600080fd5b506116de806100536000396000f3fe6080604052600436106100ab5760003560e01c806392bd38bc1161006457806392bd38bc14610218578063ac89e91f1461022b578063ae7467f314610258578063c57981b514610285578063cc62236f1461029b578063d82fc1a6146102bb576100eb565b806316dd1cbc146101245780633bb7b2481461014457806350885acc1461016457806355046d30146101915780637d38b2e9146101c45780637e03e440146101f8576100eb565b366100eb576001546040516001600160a01b03909116903480156108fc02916000818181858888f193505050501580156100e9573d6000803e3d6000fd5b005b6001546040516001600160a01b03909116903480156108fc02916000818181858888f193505050501580156100e9573d6000803e3d6000fd5b34801561013057600080fd5b506100e961013f366004610f4f565b6102fb565b34801561015057600080fd5b506100e961015f366004610f94565b61032b565b34801561017057600080fd5b506100e961017f366004610f4f565b33600090815260056020526040902055565b34801561019d57600080fd5b506101b16101ac36600461111d565b610381565b6040519081526020015b60405180910390f35b3480156101d057600080fd5b506101e46101df366004610f4f565b61055d565b6040516101bb989796959493929190611206565b34801561020457600080fd5b506101b161021336600461126c565b6106da565b6100e9610226366004610f4f565b6108b8565b34801561023757600080fd5b506101b16102463660046112fe565b60056020526000908152604090205481565b34801561026457600080fd5b506102786102733660046112fe565b610db9565b6040516101bb9190611320565b34801561029157600080fd5b506101b160005481565b3480156102a757600080fd5b506100e96102b6366004611364565b610e25565b3480156102c757600080fd5b506102eb6102d63660046112fe565b60046020526000908152604090205460ff1681565b60405190151581526020016101bb565b6001546001600160a01b0316331461032657604051632cd8447b60e01b815260040160405180910390fd5b600055565b6001546001600160a01b0316331461035657604051632cd8447b60e01b815260040160405180910390fd5b6001600160a01b03919091166000908152600460205260409020805460ff1916911515919091179055565b6040805161012081018252338152602081018781529181018690526060810185905260808101849052600060a082018190524260c08301526001600160a01b0384811660e084015261010083018290526002805460018101825590835283517f405787fa12a823e0f2b7631cc41b3ba8828b3321ca811111fa75cd3aa3bb5ace600990920291820180546001600160a01b031916919093161782559351919383927f405787fa12a823e0f2b7631cc41b3ba8828b3321ca811111fa75cd3aa3bb5acf909101906104519082611410565b50604082015160028201906104669082611410565b50606082015160038201556080820151805161048c916004840191602090910190610e8a565b5060a082015160058201805460ff191691151591909117905560c0820151600682015560e08201516007820180546001600160a01b0319166001600160a01b03909216919091179055610100909101516008909101556002546000906104f4906001906114e6565b33600090815260036020908152604080832080546001810182559084529190922001829055519091507f1cda269a62aeab5837d9b47b6077f41a6ef4eca5d62b7f5cb8fadf68ac1e56879061054a90849061160b565b60405180910390a1979650505050505050565b6002818154811061056d57600080fd5b6000918252602090912060099091020180546001820180546001600160a01b0390921693509061059c90611387565b80601f01602080910402602001604051908101604052809291908181526020018280546105c890611387565b80156106155780601f106105ea57610100808354040283529160200191610615565b820191906000526020600020905b8154815290600101906020018083116105f857829003601f168201915b50505050509080600201805461062a90611387565b80601f016020809104026020016040519081016040528092919081815260200182805461065690611387565b80156106a35780601f10610678576101008083540402835291602001916106a3565b820191906000526020600020905b81548152906001019060200180831161068657829003601f168201915b5050505060038301546005840154600685015460078601546008909601549495929460ff9092169350916001600160a01b03169088565b604080516101208101825233808252602082018781529282018690526060820185905260808201849052600060a083018190524260c084015260e083019190915261010082018190526002805460018101825590825282517f405787fa12a823e0f2b7631cc41b3ba8828b3321ca811111fa75cd3aa3bb5ace600990920291820180546001600160a01b0319166001600160a01b0390921691909117815593519193839290917f405787fa12a823e0f2b7631cc41b3ba8828b3321ca811111fa75cd3aa3bb5acf01906107ad9082611410565b50604082015160028201906107c29082611410565b5060608201516003820155608082015180516107e8916004840191602090910190610e8a565b5060a082015160058201805460ff191691151591909117905560c0820151600682015560e08201516007820180546001600160a01b0319166001600160a01b0390921691909117905561010090910151600890910155600254600090610850906001906114e6565b33600090815260036020908152604080832080546001810182559084529190922001829055519091507f1cda269a62aeab5837d9b47b6077f41a6ef4eca5d62b7f5cb8fadf68ac1e5687906108a690849061160b565b60405180910390a19695505050505050565b80600281815481106108cc576108cc61161e565b906000526020600020906009020160030154600282815481106108f1576108f161161e565b906000526020600020906009020160080154106109215760405163876eba2560e01b815260040160405180910390fd5b60006064600054346109339190611634565b61093d919061164b565b61094f90670de0b6b3a7640000611634565b9050600061095d82346114e6565b90506000600285815481106109745761097461161e565b600091825260209182902060408051610120810190915260099092020180546001600160a01b0316825260018101805492939192918401916109b590611387565b80601f01602080910402602001604051908101604052809291908181526020018280546109e190611387565b8015610a2e5780601f10610a0357610100808354040283529160200191610a2e565b820191906000526020600020905b815481529060010190602001808311610a1157829003601f168201915b50505050508152602001600282018054610a4790611387565b80601f0160208091040260200160405190810160405280929190818152602001828054610a7390611387565b8015610ac05780601f10610a9557610100808354040283529160200191610ac0565b820191906000526020600020905b815481529060010190602001808311610aa357829003601f168201915b505050505081526020016003820154815260200160048201805480602002602001604051908101604052809291908181526020016000905b82821015610ba4578382906000526020600020018054610b1790611387565b80601f0160208091040260200160405190810160405280929190818152602001828054610b4390611387565b8015610b905780601f10610b6557610100808354040283529160200191610b90565b820191906000526020600020905b815481529060010190602001808311610b7357829003601f168201915b505050505081526020019060010190610af8565b5050509082525060058281015460ff161515602080840191909152600684015460408085019190915260078501546001600160a01b0390811660608601526008909501546080909401939093528451938416600090815291905220549192509015610ce8576001600160a01b038116600090815260056020526040812054606490610c2f9034611634565b610c39919061164b565b610c4b90670de0b6b3a7640000611634565b9050610c5781856114e6565b6040519094506001600160a01b0383169082156108fc029083906000818181858888f19350505050158015610c90573d6000803e3d6000fd5b506001600160a01b038216600090815260056020526040908190205490517f59f4e43b8ac225139aa0683996d66b12690907383caaea4a318267ef6e1f332d91610cde91849190879061166d565b60405180910390a1505b8160e001516001600160a01b03166108fc849081150290604051600060405180830381858888f19350505050158015610d25573d6000803e3d6000fd5b506001546040516001600160a01b039091169085156108fc029086906000818181858888f19350505050158015610d60573d6000803e3d6000fd5b50348261010001818151610d749190611695565b90525060405133907fc7ba5cc9527362d7deb5e8ea80e7029c077249006717b62c6432138670c5649090610da990859061160b565b60405180910390a2505050505050565b6001600160a01b038116600090815260036020908152604091829020805483518184028101840190945280845260609392830182828015610e1957602002820191906000526020600020905b815481526020019060010190808311610e05575b50505050509050919050565b6001546001600160a01b03163314610e5057604051632cd8447b60e01b815260040160405180910390fd5b8060028381548110610e6457610e6461161e565b60009182526020909120600990910201600501805460ff19169115159190911790555050565b828054828255906000526020600020908101928215610ed0579160200282015b82811115610ed05782518290610ec09082611410565b5091602001919060010190610eaa565b50610edc929150610ee0565b5090565b80821115610edc576000610ef48282610efd565b50600101610ee0565b508054610f0990611387565b6000825580601f10610f19575050565b601f016020900490600052602060002090810190610f379190610f3a565b50565b5b80821115610edc5760008155600101610f3b565b600060208284031215610f6157600080fd5b5035919050565b80356001600160a01b0381168114610f7f57600080fd5b919050565b80358015158114610f7f57600080fd5b60008060408385031215610fa757600080fd5b610fb083610f68565b9150610fbe60208401610f84565b90509250929050565b634e487b7160e01b600052604160045260246000fd5b604051601f8201601f1916810167ffffffffffffffff8111828210171561100657611006610fc7565b604052919050565b600082601f83011261101f57600080fd5b813567ffffffffffffffff81111561103957611039610fc7565b61104c601f8201601f1916602001610fdd565b81815284602083860101111561106157600080fd5b816020850160208301376000918101602001919091529392505050565b600082601f83011261108f57600080fd5b8135602067ffffffffffffffff808311156110ac576110ac610fc7565b8260051b6110bb838201610fdd565b93845285810183019383810190888611156110d557600080fd5b84880192505b85831015611111578235848111156110f35760008081fd5b6111018a87838c010161100e565b83525091840191908401906110db565b98975050505050505050565b600080600080600060a0868803121561113557600080fd5b853567ffffffffffffffff8082111561114d57600080fd5b61115989838a0161100e565b9650602088013591508082111561116f57600080fd5b61117b89838a0161100e565b955060408801359450606088013591508082111561119857600080fd5b506111a58882890161107e565b9250506111b460808701610f68565b90509295509295909350565b6000815180845260005b818110156111e6576020818501810151868301820152016111ca565b506000602082860101526020601f19601f83011685010191505092915050565b6001600160a01b0389811682526101006020830181905260009161122c8483018c6111c0565b91508382036040850152611240828b6111c0565b60608501999099529615156080840152505060a0810193909352921660c082015260e001529392505050565b6000806000806080858703121561128257600080fd5b843567ffffffffffffffff8082111561129a57600080fd5b6112a68883890161100e565b955060208701359150808211156112bc57600080fd5b6112c88883890161100e565b94506040870135935060608701359150808211156112e557600080fd5b506112f28782880161107e565b91505092959194509250565b60006020828403121561131057600080fd5b61131982610f68565b9392505050565b6020808252825182820181905260009190848201906040850190845b818110156113585783518352928401929184019160010161133c565b50909695505050505050565b6000806040838503121561137757600080fd5b82359150610fbe60208401610f84565b600181811c9082168061139b57607f821691505b6020821081036113bb57634e487b7160e01b600052602260045260246000fd5b50919050565b601f82111561140b57600081815260208120601f850160051c810160208610156113e85750805b601f850160051c820191505b81811015611407578281556001016113f4565b5050505b505050565b815167ffffffffffffffff81111561142a5761142a610fc7565b61143e816114388454611387565b846113c1565b602080601f831160018114611473576000841561145b5750858301515b600019600386901b1c1916600185901b178555611407565b600085815260208120601f198616915b828110156114a257888601518255948401946001909101908401611483565b50858210156114c05787850151600019600388901b60f8161c191681555b5050505050600190811b01905550565b634e487b7160e01b600052601160045260246000fd5b818103818111156114f9576114f96114d0565b92915050565b600081518084526020808501808196508360051b8101915082860160005b858110156115475782840389526115358483516111c0565b9885019893509084019060010161151d565b5091979650505050505050565b80516001600160a01b031682526000610120602083015181602086015261157d828601826111c0565b9150506040830151848203604086015261159782826111c0565b91505060608301516060850152608083015184820360808601526115bb82826114ff565b91505060a08301516115d160a086018215159052565b5060c083015160c085015260e08301516115f660e08601826001600160a01b03169052565b50610100928301519390920192909252919050565b6020815260006113196020830184611554565b634e487b7160e01b600052603260045260246000fd5b80820281158282048414176114f9576114f96114d0565b60008261166857634e487b7160e01b600052601260045260246000fd5b500490565b83815282602082015260606040820152600061168c6060830184611554565b95945050505050565b808201808211156114f9576114f96114d056fea26469706673582212203e71fe6cd265ec6e6b431ee58e50f722cd762fc385b1f8d4e61dc2c93a7570ed64736f6c63430008110033",
    "sourcePath": "/Users/franzquarshie/source/ethfundme/EthFundMe.sol",
    "compiler": {
        "name": "solc",
        "version": "0.8.17+commit.8df45f5f"
    },
    "functionHashes": {
        "FEE()": "c57981b5",
        "addCampaign(string,string,uint256,string[])": "7e03e440",
        "addCampaign(string,string,uint256,string[],address)": "55046d30",
        "creatorCollection(address)": "ae7467f3",
        "creator_Fee(address)": "ac89e91f",
        "creator_isVerified(address)": "d82fc1a6",
        "fundCampaign(uint256)": "92bd38bc",
        "s_Campaigns(uint256)": "7d38b2e9",
        "setFEE(uint256)": "16dd1cbc",
        "setFeeCreator(uint256)": "50885acc",
        "verifyCampaign(uint256,bool)": "cc62236f",
        "verifyCreator(address,bool)": "3bb7b248"
    },
    "gasEstimates": {
        "creation": {
            "codeDepositCost": "1170800",
            "executionCost": "47556",
            "totalCost": "1218356"
        },
        "external": {
            "": "infinite",
            "FEE()": "2350",
            "addCampaign(string,string,uint256,string[])": "infinite",
            "addCampaign(string,string,uint256,string[],address)": "infinite",
            "creatorCollection(address)": "infinite",
            "creator_Fee(address)": "2530",
            "creator_isVerified(address)": "2641",
            "fundCampaign(uint256)": "infinite",
            "s_Campaigns(uint256)": "infinite",
            "setFEE(uint256)": "24465",
            "setFeeCreator(uint256)": "22425",
            "verifyCampaign(uint256,bool)": "28996",
            "verifyCreator(address,bool)": "infinite"
        }
    }
}