{
    "contractName": "FundMe",
    "abi": [
        {
            "inputs": [],
            "name": "EthFundMe__Unauthorized",
            "type": "error"
        },
        {
            "inputs": [],
            "name": "FEE",
            "outputs": [
                {
                    "internalType": "uint256",
                    "name": "",
                    "type": "uint256"
                }
            ],
            "stateMutability": "view",
            "type": "function"
        },
        {
            "inputs": [
                {
                    "internalType": "uint256",
                    "name": "_fee",
                    "type": "uint256"
                }
            ],
            "name": "setFEE",
            "outputs": [],
            "stateMutability": "nonpayable",
            "type": "function"
        }
    ],
    "bytecode": "6080604052680107ad8f556c6c0000600055600180546001600160a01b03191673b11a8eb867df90f09adbeb4f550e1f8f66f1c5f217905534801561004357600080fd5b5060df806100526000396000f3fe6080604052348015600f57600080fd5b506004361060325760003560e01c806316dd1cbc146037578063c57981b5146048575b600080fd5b604660423660046091565b6062565b005b605060005481565b60405190815260200160405180910390f35b6001546001600160a01b03163314608c57604051632cd8447b60e01b815260040160405180910390fd5b600055565b60006020828403121560a257600080fd5b503591905056fea2646970667358221220c763a8305d218484e24d603a391eb72baa2650ceb9e4695b9374120e9d0c7d6c64736f6c63430008110033",
    "sourcePath": "/Users/franzquarshie/source/ethfundme/FundMe.sol",
    "compiler": {
        "name": "solc",
        "version": "0.8.17+commit.8df45f5f"
    },
    "functionHashes": {
        "FEE()": "c57981b5",
        "setFEE(uint256)": "16dd1cbc"
    },
    "gasEstimates": {
        "creation": {
            "codeDepositCost": "44600",
            "executionCost": "46435",
            "totalCost": "91035"
        },
        "external": {
            "FEE()": "2283",
            "setFEE(uint256)": "24442"
        }
    }
}